{"contracts/RLNVerifier.sol":{"Groth16Verifier":{"abi":[{"inputs":[{"internalType":"uint256[2]","name":"_pA","type":"uint256[2]"},{"internalType":"uint256[2][2]","name":"_pB","type":"uint256[2][2]"},{"internalType":"uint256[2]","name":"_pC","type":"uint256[2]"},{"internalType":"uint256[5]","name":"_pubSignals","type":"uint256[5]"}],"name":"verifyProof","outputs":[{"internalType":"bool","name":"","type":"bool"}],"stateMutability":"view","type":"function"}],"evm":{"bytecode":{"linkReferences":{},"object":"608060405234801561001057600080fd5b506106d1806100206000396000f3fe608060405234801561001057600080fd5b506004361061002b5760003560e01c806334baeab914610030575b600080fd5b61004361003e366004610635565b610057565b604051901515815260200160405180910390f35b60006105b9565b7f30644e72e131a029b85045b68181585d2833e84879b9709143e1f593f0000001811061008f576000805260206000f35b50565b600060405183815284602082015285604082015260408160608360076107d05a03fa9150816100c5576000805260206000f35b825160408201526020830151606082015260408360808360066107d05a03fa915050806100f6576000805260206000f35b5050505050565b7f2aa49d2fc7519f8f73c3aaa134cb4643e0c3a60e962e7fcb5179ad9513ac900d85527f0895c7d21a43a18113d53282b266ef3e4a27649b331e7a2c2ec037e290bcb70d60208601526000608086018661019a87357f234acbddef5742294be894318c4879c4f5cf1e1c43da5ab83f6932f55cf5235f7f074996bb3559ea22f067a0d47bb73dd47db22a075364d8fc90c1b103f01eab5884610092565b6101e960208801357e87e1ea856dd84aaeb987ff8aa90535c01e4e71e864151893df378a09dfe7407f10e0027439a33db2703761e8f8aea51148a9f5350d676888b6084470e2bd0f7484610092565b61023960408801357f1552b34c6a6ff44ce8b88d98845b6a738424033c31f15165470dbb5cdbcb32a97f2744fa56cd521da9cb892943d9b17266be4a525a6e9d14fd301e2eb515cf3cde84610092565b61028960608801357f0e5688ac636dc0de7e1eef2d171301ab3d9356863dff26ef9632c937774da6c07f194ed080c9c30f1d382afdbbe0e329955f14d878824fa2ec38420fd999e99fc484610092565b6102d960808801357f29a1d429f18c8604f570fc147fc895d7a55f43fccc70892abf6c2e77def0c0637f05aef5d7cbe68d527a79a342a2fba4886fc438e308cc803fc238781c5802aa4084610092565b50823581527f30644e72e131a029b85045b68181585d97816a916871ca8d3c208c16d87cfd4760208401357f30644e72e131a029b85045b68181585d97816a916871ca8d3c208c16d87cfd4703066020820152833560408201526020840135606082015260408401356080820152606084013560a08201527f10423820fb25183481edbb07daddaee471a97147875e9054f38ce91368795bb660c08201527f0ea00d83b57c48d1c69a59961cd4cbf0f44abcc355e54a83fbceccad6dbf9f2e60e08201527f01383df9d174c9ca0f8ac59d561d5f7f484f859d7741754838999e9597b4c64d6101008201527f2d3f6ee0cedcf720f29c36d4f3c2e106fd5ba83f6f4485a5229ecd621e5f0a4b6101208201527f2e7935d88b30b5f38db080755e6e7ce75e129be80ae77f4a4cf3d194c2f335f56101408201527f16edac5cfaa61781bb884801c930cb3489cc41d54410a42a6aefdd74896db23a610160820152600087015161018082015260206000018701516101a08201527f198e9393920d483a7260bfb731fb5d25f1aa493335a9e71297e485b7aef312c26101c08201527f1800deef121f1e76426a00665e5c4479674322d4f75edadd46debd5cd992f6ed6101e08201527f090689d0585ff075ec9e99ad690c3395bc4b313370b38ef355acdadcd122975b6102008201527f12c85ea5db8c6deb4aab71808dcb408fe3d1e7690c43d37b4ce6cc0166fa7daa610220820152843561024082015260208501356102608201527f198e9393920d483a7260bfb731fb5d25f1aa493335a9e71297e485b7aef312c26102808201527f1800deef121f1e76426a00665e5c4479674322d4f75edadd46debd5cd992f6ed6102a08201527f090689d0585ff075ec9e99ad690c3395bc4b313370b38ef355acdadcd122975b6102c08201527f12c85ea5db8c6deb4aab71808dcb408fe3d1e7690c43d37b4ce6cc0166fa7daa6102e08201526020816103008360086107d05a03fa9051169695505050505050565b60405161038081016040526105d1600084013561005e565b6105de602084013561005e565b6105eb604084013561005e565b6105f8606084013561005e565b610605608084013561005e565b610612818486888a6100fd565b90508060005260206000f35b806040810183101561062f57600080fd5b92915050565b6000806000806101a080868803121561064d57600080fd5b610657878761061e565b945060c086018781111561066a57600080fd5b60408701945061067a888261061e565b93505086818701111561068c57600080fd5b5092959194509261010001915056fea26469706673582212206543540e2195a73b6cc880713475e4a27f65fb7e4d052ba5be7ccf42260ed13d64736f6c63430008130033","opcodes":"PUSH1 0x80 PUSH1 0x40 MSTORE CALLVALUE DUP1 ISZERO PUSH2 0x10 JUMPI PUSH1 0x0 DUP1 REVERT JUMPDEST POP PUSH2 0x6D1 DUP1 PUSH2 0x20 PUSH1 0x0 CODECOPY PUSH1 0x0 RETURN INVALID PUSH1 0x80 PUSH1 0x40 MSTORE CALLVALUE DUP1 ISZERO PUSH2 0x10 JUMPI PUSH1 0x0 DUP1 REVERT JUMPDEST POP PUSH1 0x4 CALLDATASIZE LT PUSH2 0x2B JUMPI PUSH1 0x0 CALLDATALOAD PUSH1 0xE0 SHR DUP1 PUSH4 0x34BAEAB9 EQ PUSH2 0x30 JUMPI JUMPDEST PUSH1 0x0 DUP1 REVERT JUMPDEST PUSH2 0x43 PUSH2 0x3E CALLDATASIZE PUSH1 0x4 PUSH2 0x635 JUMP JUMPDEST PUSH2 0x57 JUMP JUMPDEST PUSH1 0x40 MLOAD SWAP1 ISZERO ISZERO DUP2 MSTORE PUSH1 0x20 ADD PUSH1 0x40 MLOAD DUP1 SWAP2 SUB SWAP1 RETURN JUMPDEST PUSH1 0x0 PUSH2 0x5B9 JUMP JUMPDEST PUSH32 0x30644E72E131A029B85045B68181585D2833E84879B9709143E1F593F0000001 DUP2 LT PUSH2 0x8F JUMPI PUSH1 0x0 DUP1 MSTORE PUSH1 0x20 PUSH1 0x0 RETURN JUMPDEST POP JUMP JUMPDEST PUSH1 0x0 PUSH1 0x40 MLOAD DUP4 DUP2 MSTORE DUP5 PUSH1 0x20 DUP3 ADD MSTORE DUP6 PUSH1 0x40 DUP3 ADD MSTORE PUSH1 0x40 DUP2 PUSH1 0x60 DUP4 PUSH1 0x7 PUSH2 0x7D0 GAS SUB STATICCALL SWAP2 POP DUP2 PUSH2 0xC5 JUMPI PUSH1 0x0 DUP1 MSTORE PUSH1 0x20 PUSH1 0x0 RETURN JUMPDEST DUP3 MLOAD PUSH1 0x40 DUP3 ADD MSTORE PUSH1 0x20 DUP4 ADD MLOAD PUSH1 0x60 DUP3 ADD MSTORE PUSH1 0x40 DUP4 PUSH1 0x80 DUP4 PUSH1 0x6 PUSH2 0x7D0 GAS SUB STATICCALL SWAP2 POP POP DUP1 PUSH2 0xF6 JUMPI PUSH1 0x0 DUP1 MSTORE PUSH1 0x20 PUSH1 0x0 RETURN JUMPDEST POP POP POP POP POP JUMP JUMPDEST PUSH32 0x2AA49D2FC7519F8F73C3AAA134CB4643E0C3A60E962E7FCB5179AD9513AC900D DUP6 MSTORE PUSH32 0x895C7D21A43A18113D53282B266EF3E4A27649B331E7A2C2EC037E290BCB70D PUSH1 0x20 DUP7 ADD MSTORE PUSH1 0x0 PUSH1 0x80 DUP7 ADD DUP7 PUSH2 0x19A DUP8 CALLDATALOAD PUSH32 0x234ACBDDEF5742294BE894318C4879C4F5CF1E1C43DA5AB83F6932F55CF5235F PUSH32 0x74996BB3559EA22F067A0D47BB73DD47DB22A075364D8FC90C1B103F01EAB58 DUP5 PUSH2 0x92 JUMP JUMPDEST PUSH2 0x1E9 PUSH1 0x20 DUP9 ADD CALLDATALOAD PUSH31 0x87E1EA856DD84AAEB987FF8AA90535C01E4E71E864151893DF378A09DFE740 PUSH32 0x10E0027439A33DB2703761E8F8AEA51148A9F5350D676888B6084470E2BD0F74 DUP5 PUSH2 0x92 JUMP JUMPDEST PUSH2 0x239 PUSH1 0x40 DUP9 ADD CALLDATALOAD PUSH32 0x1552B34C6A6FF44CE8B88D98845B6A738424033C31F15165470DBB5CDBCB32A9 PUSH32 0x2744FA56CD521DA9CB892943D9B17266BE4A525A6E9D14FD301E2EB515CF3CDE DUP5 PUSH2 0x92 JUMP JUMPDEST PUSH2 0x289 PUSH1 0x60 DUP9 ADD CALLDATALOAD PUSH32 0xE5688AC636DC0DE7E1EEF2D171301AB3D9356863DFF26EF9632C937774DA6C0 PUSH32 0x194ED080C9C30F1D382AFDBBE0E329955F14D878824FA2EC38420FD999E99FC4 DUP5 PUSH2 0x92 JUMP JUMPDEST PUSH2 0x2D9 PUSH1 0x80 DUP9 ADD CALLDATALOAD PUSH32 0x29A1D429F18C8604F570FC147FC895D7A55F43FCCC70892ABF6C2E77DEF0C063 PUSH32 0x5AEF5D7CBE68D527A79A342A2FBA4886FC438E308CC803FC238781C5802AA40 DUP5 PUSH2 0x92 JUMP JUMPDEST POP DUP3 CALLDATALOAD DUP2 MSTORE PUSH32 0x30644E72E131A029B85045B68181585D97816A916871CA8D3C208C16D87CFD47 PUSH1 0x20 DUP5 ADD CALLDATALOAD PUSH32 0x30644E72E131A029B85045B68181585D97816A916871CA8D3C208C16D87CFD47 SUB MOD PUSH1 0x20 DUP3 ADD MSTORE DUP4 CALLDATALOAD PUSH1 0x40 DUP3 ADD MSTORE PUSH1 0x20 DUP5 ADD CALLDATALOAD PUSH1 0x60 DUP3 ADD MSTORE PUSH1 0x40 DUP5 ADD CALLDATALOAD PUSH1 0x80 DUP3 ADD MSTORE PUSH1 0x60 DUP5 ADD CALLDATALOAD PUSH1 0xA0 DUP3 ADD MSTORE PUSH32 0x10423820FB25183481EDBB07DADDAEE471A97147875E9054F38CE91368795BB6 PUSH1 0xC0 DUP3 ADD MSTORE PUSH32 0xEA00D83B57C48D1C69A59961CD4CBF0F44ABCC355E54A83FBCECCAD6DBF9F2E PUSH1 0xE0 DUP3 ADD MSTORE PUSH32 0x1383DF9D174C9CA0F8AC59D561D5F7F484F859D7741754838999E9597B4C64D PUSH2 0x100 DUP3 ADD MSTORE PUSH32 0x2D3F6EE0CEDCF720F29C36D4F3C2E106FD5BA83F6F4485A5229ECD621E5F0A4B PUSH2 0x120 DUP3 ADD MSTORE PUSH32 0x2E7935D88B30B5F38DB080755E6E7CE75E129BE80AE77F4A4CF3D194C2F335F5 PUSH2 0x140 DUP3 ADD MSTORE PUSH32 0x16EDAC5CFAA61781BB884801C930CB3489CC41D54410A42A6AEFDD74896DB23A PUSH2 0x160 DUP3 ADD MSTORE PUSH1 0x0 DUP8 ADD MLOAD PUSH2 0x180 DUP3 ADD MSTORE PUSH1 0x20 PUSH1 0x0 ADD DUP8 ADD MLOAD PUSH2 0x1A0 DUP3 ADD MSTORE PUSH32 0x198E9393920D483A7260BFB731FB5D25F1AA493335A9E71297E485B7AEF312C2 PUSH2 0x1C0 DUP3 ADD MSTORE PUSH32 0x1800DEEF121F1E76426A00665E5C4479674322D4F75EDADD46DEBD5CD992F6ED PUSH2 0x1E0 DUP3 ADD MSTORE PUSH32 0x90689D0585FF075EC9E99AD690C3395BC4B313370B38EF355ACDADCD122975B PUSH2 0x200 DUP3 ADD MSTORE PUSH32 0x12C85EA5DB8C6DEB4AAB71808DCB408FE3D1E7690C43D37B4CE6CC0166FA7DAA PUSH2 0x220 DUP3 ADD MSTORE DUP5 CALLDATALOAD PUSH2 0x240 DUP3 ADD MSTORE PUSH1 0x20 DUP6 ADD CALLDATALOAD PUSH2 0x260 DUP3 ADD MSTORE PUSH32 0x198E9393920D483A7260BFB731FB5D25F1AA493335A9E71297E485B7AEF312C2 PUSH2 0x280 DUP3 ADD MSTORE PUSH32 0x1800DEEF121F1E76426A00665E5C4479674322D4F75EDADD46DEBD5CD992F6ED PUSH2 0x2A0 DUP3 ADD MSTORE PUSH32 0x90689D0585FF075EC9E99AD690C3395BC4B313370B38EF355ACDADCD122975B PUSH2 0x2C0 DUP3 ADD MSTORE PUSH32 0x12C85EA5DB8C6DEB4AAB71808DCB408FE3D1E7690C43D37B4CE6CC0166FA7DAA PUSH2 0x2E0 DUP3 ADD MSTORE PUSH1 0x20 DUP2 PUSH2 0x300 DUP4 PUSH1 0x8 PUSH2 0x7D0 GAS SUB STATICCALL SWAP1 MLOAD AND SWAP7 SWAP6 POP POP POP POP POP POP JUMP JUMPDEST PUSH1 0x40 MLOAD PUSH2 0x380 DUP2 ADD PUSH1 0x40 MSTORE PUSH2 0x5D1 PUSH1 0x0 DUP5 ADD CALLDATALOAD PUSH2 0x5E JUMP JUMPDEST PUSH2 0x5DE PUSH1 0x20 DUP5 ADD CALLDATALOAD PUSH2 0x5E JUMP JUMPDEST PUSH2 0x5EB PUSH1 0x40 DUP5 ADD CALLDATALOAD PUSH2 0x5E JUMP JUMPDEST PUSH2 0x5F8 PUSH1 0x60 DUP5 ADD CALLDATALOAD PUSH2 0x5E JUMP JUMPDEST PUSH2 0x605 PUSH1 0x80 DUP5 ADD CALLDATALOAD PUSH2 0x5E JUMP JUMPDEST PUSH2 0x612 DUP2 DUP5 DUP7 DUP9 DUP11 PUSH2 0xFD JUMP JUMPDEST SWAP1 POP DUP1 PUSH1 0x0 MSTORE PUSH1 0x20 PUSH1 0x0 RETURN JUMPDEST DUP1 PUSH1 0x40 DUP2 ADD DUP4 LT ISZERO PUSH2 0x62F JUMPI PUSH1 0x0 DUP1 REVERT JUMPDEST SWAP3 SWAP2 POP POP JUMP JUMPDEST PUSH1 0x0 DUP1 PUSH1 0x0 DUP1 PUSH2 0x1A0 DUP1 DUP7 DUP9 SUB SLT ISZERO PUSH2 0x64D JUMPI PUSH1 0x0 DUP1 REVERT JUMPDEST PUSH2 0x657 DUP8 DUP8 PUSH2 0x61E JUMP JUMPDEST SWAP5 POP PUSH1 0xC0 DUP7 ADD DUP8 DUP2 GT ISZERO PUSH2 0x66A JUMPI PUSH1 0x0 DUP1 REVERT JUMPDEST PUSH1 0x40 DUP8 ADD SWAP5 POP PUSH2 0x67A DUP9 DUP3 PUSH2 0x61E JUMP JUMPDEST SWAP4 POP POP DUP7 DUP2 DUP8 ADD GT ISZERO PUSH2 0x68C JUMPI PUSH1 0x0 DUP1 REVERT JUMPDEST POP SWAP3 SWAP6 SWAP2 SWAP5 POP SWAP3 PUSH2 0x100 ADD SWAP2 POP JUMP INVALID LOG2 PUSH5 0x6970667358 0x22 SLT KECCAK256 PUSH6 0x43540E2195A7 EXTCODESIZE PUSH13 0xC880713475E4A27F65FB7E4D05 0x2B 0xA5 0xBE PUSH29 0xCF42260ED13D64736F6C63430008130033000000000000000000000000 "},"methodIdentifiers":{"verifyProof(uint256[2],uint256[2][2],uint256[2],uint256[5])":"34baeab9"}}}}}