{
  "_format": "hh-sol-artifact-1",
  "contractName": "RLN",
  "sourceName": "contracts/RLN.sol",
  "abi": [
    {
      "inputs": [
        {
          "internalType": "address",
          "name": "_verifier",
          "type": "address"
        },
        {
          "internalType": "uint256",
          "name": "_membershipDeposit",
          "type": "uint256"
        },
        {
          "internalType": "uint256",
          "name": "_epochLength",
          "type": "uint256"
        },
        {
          "internalType": "uint256",
          "name": "_initialRoot",
          "type": "uint256"
        }
      ],
      "stateMutability": "nonpayable",
      "type": "constructor"
    },
    {
      "inputs": [],
      "name": "IdentityAlreadySlashed",
      "type": "error"
    },
    {
      "inputs": [],
      "name": "InsufficientDeposit",
      "type": "error"
    },
    {
      "inputs": [],
      "name": "InvalidEpoch",
      "type": "error"
    },
    {
      "inputs": [],
      "name": "InvalidProof",
      "type": "error"
    },
    {
      "inputs": [],
      "name": "MessageLimitExceeded",
      "type": "error"
    },
    {
      "inputs": [],
      "name": "NoSlashableOffense",
      "type": "error"
    },
    {
      "inputs": [],
      "name": "NullifierAlreadyUsed",
      "type": "error"
    },
    {
      "anonymous": false,
      "inputs": [
        {
          "indexed": true,
          "internalType": "uint256",
          "name": "identityCommitment",
          "type": "uint256"
        },
        {
          "indexed": false,
          "internalType": "uint256",
          "name": "deposit",
          "type": "uint256"
        }
      ],
      "name": "IdentityRegistered",
      "type": "event"
    },
    {
      "anonymous": false,
      "inputs": [
        {
          "indexed": true,
          "internalType": "uint256",
          "name": "identityCommitment",
          "type": "uint256"
        },
        {
          "indexed": false,
          "internalType": "uint256",
          "name": "recoveredSecret",
          "type": "uint256"
        }
      ],
      "name": "IdentitySlashed",
      "type": "event"
    },
    {
      "anonymous": false,
      "inputs": [
        {
          "indexed": true,
          "internalType": "uint256",
          "name": "messageId",
          "type": "uint256"
        },
        {
          "indexed": false,
          "internalType": "uint256",
          "name": "nullifier",
          "type": "uint256"
        },
        {
          "indexed": false,
          "internalType": "uint256",
          "name": "epoch",
          "type": "uint256"
        }
      ],
      "name": "MessagePosted",
      "type": "event"
    },
    {
      "anonymous": false,
      "inputs": [
        {
          "indexed": false,
          "internalType": "uint256",
          "name": "newRoot",
          "type": "uint256"
        }
      ],
      "name": "RootUpdated",
      "type": "event"
    },
    {
      "inputs": [],
      "name": "epochLength",
      "outputs": [
        {
          "internalType": "uint256",
          "name": "",
          "type": "uint256"
        }
      ],
      "stateMutability": "view",
      "type": "function"
    },
    {
      "inputs": [
        {
          "internalType": "uint256",
          "name": "",
          "type": "uint256"
        },
        {
          "internalType": "uint256",
          "name": "",
          "type": "uint256"
        }
      ],
      "name": "epochMessages",
      "outputs": [
        {
          "internalType": "uint256",
          "name": "",
          "type": "uint256"
        }
      ],
      "stateMutability": "view",
      "type": "function"
    },
    {
      "inputs": [],
      "name": "getCurrentEpoch",
      "outputs": [
        {
          "internalType": "uint256",
          "name": "",
          "type": "uint256"
        }
      ],
      "stateMutability": "view",
      "type": "function"
    },
    {
      "inputs": [
        {
          "internalType": "uint256",
          "name": "epoch",
          "type": "uint256"
        }
      ],
      "name": "getEpochMessages",
      "outputs": [
        {
          "internalType": "uint256[]",
          "name": "",
          "type": "uint256[]"
        }
      ],
      "stateMutability": "view",
      "type": "function"
    },
    {
      "inputs": [],
      "name": "getMessageLimit",
      "outputs": [
        {
          "internalType": "uint256",
          "name": "",
          "type": "uint256"
        }
      ],
      "stateMutability": "pure",
      "type": "function"
    },
    {
      "inputs": [
        {
          "internalType": "uint256",
          "name": "",
          "type": "uint256"
        }
      ],
      "name": "identities",
      "outputs": [
        {
          "internalType": "uint256",
          "name": "commitment",
          "type": "uint256"
        },
        {
          "internalType": "uint256",
          "name": "deposit",
          "type": "uint256"
        },
        {
          "internalType": "bool",
          "name": "slashed",
          "type": "bool"
        }
      ],
      "stateMutability": "view",
      "type": "function"
    },
    {
      "inputs": [],
      "name": "identityCount",
      "outputs": [
        {
          "internalType": "uint256",
          "name": "",
          "type": "uint256"
        }
      ],
      "stateMutability": "view",
      "type": "function"
    },
    {
      "inputs": [
        {
          "internalType": "uint256",
          "name": "nullifier",
          "type": "uint256"
        }
      ],
      "name": "isNullifierUsed",
      "outputs": [
        {
          "internalType": "bool",
          "name": "",
          "type": "bool"
        }
      ],
      "stateMutability": "view",
      "type": "function"
    },
    {
      "inputs": [],
      "name": "membershipDeposit",
      "outputs": [
        {
          "internalType": "uint256",
          "name": "",
          "type": "uint256"
        }
      ],
      "stateMutability": "view",
      "type": "function"
    },
    {
      "inputs": [],
      "name": "merkleRoot",
      "outputs": [
        {
          "internalType": "uint256",
          "name": "",
          "type": "uint256"
        }
      ],
      "stateMutability": "view",
      "type": "function"
    },
    {
      "inputs": [],
      "name": "messageCount",
      "outputs": [
        {
          "internalType": "uint256",
          "name": "",
          "type": "uint256"
        }
      ],
      "stateMutability": "view",
      "type": "function"
    },
    {
      "inputs": [
        {
          "internalType": "uint256",
          "name": "",
          "type": "uint256"
        }
      ],
      "name": "messages",
      "outputs": [
        {
          "internalType": "uint256",
          "name": "signalHash",
          "type": "uint256"
        },
        {
          "internalType": "uint256",
          "name": "nullifier",
          "type": "uint256"
        },
        {
          "internalType": "uint256",
          "name": "y",
          "type": "uint256"
        },
        {
          "internalType": "uint256",
          "name": "timestamp",
          "type": "uint256"
        },
        {
          "internalType": "address",
          "name": "sender",
          "type": "address"
        }
      ],
      "stateMutability": "view",
      "type": "function"
    },
    {
      "inputs": [
        {
          "internalType": "uint256",
          "name": "",
          "type": "uint256"
        }
      ],
      "name": "nullifierToEpoch",
      "outputs": [
        {
          "internalType": "uint256",
          "name": "",
          "type": "uint256"
        }
      ],
      "stateMutability": "view",
      "type": "function"
    },
    {
      "inputs": [
        {
          "internalType": "uint256",
          "name": "signalHash",
          "type": "uint256"
        },
        {
          "internalType": "uint256",
          "name": "nullifier",
          "type": "uint256"
        },
        {
          "internalType": "uint256",
          "name": "y",
          "type": "uint256"
        },
        {
          "internalType": "uint256",
          "name": "externalNullifier",
          "type": "uint256"
        },
        {
          "internalType": "uint256[2]",
          "name": "a",
          "type": "uint256[2]"
        },
        {
          "internalType": "uint256[2][2]",
          "name": "b",
          "type": "uint256[2][2]"
        },
        {
          "internalType": "uint256[2]",
          "name": "c",
          "type": "uint256[2]"
        }
      ],
      "name": "postMessage",
      "outputs": [],
      "stateMutability": "nonpayable",
      "type": "function"
    },
    {
      "inputs": [
        {
          "internalType": "uint256",
          "name": "identityCommitment",
          "type": "uint256"
        }
      ],
      "name": "registerIdentity",
      "outputs": [],
      "stateMutability": "payable",
      "type": "function"
    },
    {
      "inputs": [
        {
          "internalType": "uint256",
          "name": "nullifier1",
          "type": "uint256"
        },
        {
          "internalType": "uint256",
          "name": "nullifier2",
          "type": "uint256"
        },
        {
          "internalType": "uint256",
          "name": "identityCommitment",
          "type": "uint256"
        }
      ],
      "name": "slash",
      "outputs": [],
      "stateMutability": "nonpayable",
      "type": "function"
    },
    {
      "inputs": [
        {
          "internalType": "uint256",
          "name": "newRoot",
          "type": "uint256"
        }
      ],
      "name": "updateRoot",
      "outputs": [],
      "stateMutability": "nonpayable",
      "type": "function"
    },
    {
      "inputs": [
        {
          "internalType": "uint256",
          "name": "",
          "type": "uint256"
        }
      ],
      "name": "usedNullifiers",
      "outputs": [
        {
          "internalType": "bool",
          "name": "",
          "type": "bool"
        }
      ],
      "stateMutability": "view",
      "type": "function"
    },
    {
      "inputs": [],
      "name": "verifier",
      "outputs": [
        {
          "internalType": "contract IVerifier",
          "name": "",
          "type": "address"
        }
      ],
      "stateMutability": "view",
      "type": "function"
    }
  ],
  "bytecode": "0x60e060405234801561001057600080fd5b5060405161104738038061104783398101604081905261002f9161004e565b6001600160a01b0390931660805260a09190915260c052600755610099565b6000806000806080858703121561006457600080fd5b84516001600160a01b038116811461007b57600080fd5b60208601516040870151606090970151919890975090945092505050565b60805160a05160c051610f6a6100dd6000396000818161024f0152610a0c01526000818161033901526106310152600081816101b301526107ed0152610f6a6000f3fe6080604052600436106101145760003560e01c806371875483116100a0578063b97dd9e211610064578063b97dd9e21461039b578063bcfd3d47146103b0578063c14aabf2146103d0578063c6c0572d146103fd578063eaaf77e61461042d57600080fd5b806371875483146102c6578063768bff29146102da5780639efcf737146102fa578063a81f95a614610327578063aad240611461035b57600080fd5b80633dbcc8d1116100e75780633dbcc8d11461022757806357d775f81461023d5780635b7ba688146102715780636cbb6050146102915780636fd71207146102b357600080fd5b80630d80fefd146101195780632b7ac3f3146101a15780632eb4a7ab146101ed57806338678ba514610211575b600080fd5b34801561012557600080fd5b5061016b610134366004610bf6565b600160208190526000918252604090912080549181015460028201546003830154600490930154919290916001600160a01b031685565b6040805195865260208601949094529284019190915260608301526001600160a01b0316608082015260a0015b60405180910390f35b3480156101ad57600080fd5b506101d57f000000000000000000000000000000000000000000000000000000000000000081565b6040516001600160a01b039091168152602001610198565b3480156101f957600080fd5b5061020360075481565b604051908152602001610198565b34801561021d57600080fd5b5061020360055481565b34801561023357600080fd5b5061020360065481565b34801561024957600080fd5b506102037f000000000000000000000000000000000000000000000000000000000000000081565b34801561027d57600080fd5b5061020361028c366004610c0f565b610489565b34801561029d57600080fd5b506102b16102ac366004610c31565b6104ba565b005b6102b16102c1366004610bf6565b61062f565b3480156102d257600080fd5b506064610203565b3480156102e657600080fd5b506102b16102f5366004610ce4565b610743565b34801561030657600080fd5b50610203610315366004610bf6565b60046020526000908152604090205481565b34801561033357600080fd5b506102037f000000000000000000000000000000000000000000000000000000000000000081565b34801561036757600080fd5b5061038b610376366004610bf6565b60036020526000908152604090205460ff1681565b6040519015158152602001610198565b3480156103a757600080fd5b50610203610a05565b3480156103bc57600080fd5b506102b16103cb366004610bf6565b610a36565b3480156103dc57600080fd5b506103f06103eb366004610bf6565b610a6b565b6040516101989190610d99565b34801561040957600080fd5b5061038b610418366004610bf6565b60009081526003602052604090205460ff1690565b34801561043957600080fd5b5061046c610448366004610bf6565b60006020819052908152604090208054600182015460029092015490919060ff1683565b604080519384526020840192909252151590820152606001610198565b600260205281600052604060002081815481106104a557600080fd5b90600052602060002001600091509150505481565b6000838152600460205260408082205484835291205480821415806104dd575081155b156104fb576040516302d8577960e11b815260040160405180910390fd5b600061050686610acd565b9050600061051386610acd565b600083815260016020526040808220838352912080548254939450919290919003610551576040516302d8577960e11b815260040160405180910390fd5b600061056f8360000154846002015484600001548560020154610b4f565b600089815260208190526040902060028101549192509060ff16156105a75760405163ca55de8560e01b815260040160405180910390fd5b60028101805460ff19166001908117909155810154604051339180156108fc02916000818181858888f193505050501580156105e7573d6000803e3d6000fd5b50887fc3952992c8effced12bce6c8cfb0e6766e912b07842a8cceac26efa175f95ca68360405161061a91815260200190565b60405180910390a25050505050505050505050565b7f00000000000000000000000000000000000000000000000000000000000000003410156106705760405163070f6eed60e11b815260040160405180910390fd5b604080516060810182528281523460208083019182526000838501818152868252918190529384209251835590516001830155516002909101805460ff191691151591909117905560058054916106c683610df3565b9190505550807f053db8a054ebd7bf161422604c2f0481191c0c8b36115a8ea972d80f1f6e3d43346040516106fd91815260200190565b60405180910390a27fb0644cedd466048fffec12002a45bb9b94385438367a9762bb7f6f025b3c19fc60075460405161073891815260200190565b60405180910390a150565b60008681526003602052604090205460ff161561077357604051636569570160e11b815260040160405180910390fd5b600061077d610a05565b90506064600082815260026020526040902054106107ae576040516352e7fa3360e11b815260040160405180910390fd5b6040805160a081018252868152602081018890528082018990526007546060820152608081018a905290516334baeab960e01b81526001600160a01b037f000000000000000000000000000000000000000000000000000000000000000016906334baeab990610828908890889088908790600401610e35565b602060405180830381865afa158015610845573d6000803e3d6000fd5b505050506040513d601f19601f820116820180604052508101906108699190610eb9565b610886576040516309bde33960e01b815260040160405180910390fd5b600680546000918261089783610df3565b9190505590506040518060a001604052808b81526020018a8152602001898152602001428152602001336001600160a01b0316815250600160008381526020019081526020016000206000820151816000015560208201518160010155604082015181600201556060820151816003015560808201518160040160006101000a8154816001600160a01b0302191690836001600160a01b031602179055509050506001600360008b815260200190815260200160002060006101000a81548160ff02191690831515021790555082600460008b81526020019081526020016000208190555060026000848152602001908152602001600020899080600181540180825580915050600190039060005260206000200160009091909190915055807fcdffa7ceb810371a11ecabe8a8b16c5ac2c4c61c6aa3b642ab61cd61c19ca7328a856040516109f1929190918252602082015260400190565b60405180910390a250505050505050505050565b6000610a317f000000000000000000000000000000000000000000000000000000000000000042610ee2565b905090565b60078190556040518181527fb0644cedd466048fffec12002a45bb9b94385438367a9762bb7f6f025b3c19fc90602001610738565b600081815260026020908152604091829020805483518184028101840190945280845260609392830182828015610ac157602002820191906000526020600020905b815481526020019060010190808311610aad575b50505050509050919050565b6000805b600654811015610b0d5760008181526001602081905260409091200154839003610afb5792915050565b80610b0581610df3565b915050610ad1565b5060405162461bcd60e51b815260206004820152601160248201527013595cdcd859d9481b9bdd08199bdd5b99607a1b60448201526064015b60405180910390fd5b6000828503610bb15760405162461bcd60e51b815260206004820152602860248201527f43616e6e6f74207265636f766572207365637265742066726f6d2073616d6520604482015267782076616c75657360c01b6064820152608401610b46565b6000610bbd8684610f04565b610bc78587610f04565b610bd19190610f21565b90506000610bdf8786610f21565b9050610beb8183610ee2565b979650505050505050565b600060208284031215610c0857600080fd5b5035919050565b60008060408385031215610c2257600080fd5b50508035926020909101359150565b600080600060608486031215610c4657600080fd5b505081359360208301359350604090920135919050565b6040805190810167ffffffffffffffff81118282101715610c8e57634e487b7160e01b600052604160045260246000fd5b60405290565b600082601f830112610ca557600080fd5b610cad610c5d565b806040840185811115610cbf57600080fd5b845b81811015610cd9578035845260209384019301610cc1565b509095945050505050565b6000806000806000806000610180888a031215610d0057600080fd5b8735965060208089013596506040808a0135965060608a01359550610d288b60808c01610c94565b94508a60df8b0112610d3957600080fd5b610d41610c5d565b806101408c018d811115610d5457600080fd5b60c08d015b81811015610d7857610d6b8f82610c94565b8452928501928401610d59565b50819650610d868e82610c94565b9550505050505092959891949750929550565b6020808252825182820181905260009190848201906040850190845b81811015610dd157835183529284019291840191600101610db5565b50909695505050505050565b634e487b7160e01b600052601160045260246000fd5b600060018201610e0557610e05610ddd565b5060010190565b8060005b6002811015610e2f578151845260209384019390910190600101610e10565b50505050565b6101a08101610e448287610e0c565b60408083018660005b6002811015610e7457610e61838351610e0c565b9183019160209190910190600101610e4d565b50505050610e8560c0830185610e0c565b61010082018360005b6005811015610ead578151835260209283019290910190600101610e8e565b50505095945050505050565b600060208284031215610ecb57600080fd5b81518015158114610edb57600080fd5b9392505050565b600082610eff57634e487b7160e01b600052601260045260246000fd5b500490565b8082028115828204841417610f1b57610f1b610ddd565b92915050565b81810381811115610f1b57610f1b610ddd56fea2646970667358221220b776124508a9735d9e1206fb8d0849f4da778421cf2c34a722208e73698e4cb864736f6c63430008130033",
  "linkReferences": {},
  "deployedLinkReferences": {}
}