{
  "_format": "hh-sol-artifact-1",
  "contractName": "Groth16Verifier",
  "sourceName": "contracts/RLNVerifier.sol",
  "abi": [
    {
      "inputs": [
        {
          "internalType": "uint256[2]",
          "name": "_pA",
          "type": "uint256[2]"
        },
        {
          "internalType": "uint256[2][2]",
          "name": "_pB",
          "type": "uint256[2][2]"
        },
        {
          "internalType": "uint256[2]",
          "name": "_pC",
          "type": "uint256[2]"
        },
        {
          "internalType": "uint256[5]",
          "name": "_pubSignals",
          "type": "uint256[5]"
        }
      ],
      "name": "verifyProof",
      "outputs": [
        {
          "internalType": "bool",
          "name": "",
          "type": "bool"
        }
      ],
      "stateMutability": "view",
      "type": "function"
    }
  ],
  "bytecode": "0x608060405234801561001057600080fd5b506106d1806100206000396000f3fe608060405234801561001057600080fd5b506004361061002b5760003560e01c806334baeab914610030575b600080fd5b61004361003e366004610635565b610057565b604051901515815260200160405180910390f35b60006105b9565b7f30644e72e131a029b85045b68181585d2833e84879b9709143e1f593f0000001811061008f576000805260206000f35b50565b600060405183815284602082015285604082015260408160608360076107d05a03fa9150816100c5576000805260206000f35b825160408201526020830151606082015260408360808360066107d05a03fa915050806100f6576000805260206000f35b5050505050565b7f2aa49d2fc7519f8f73c3aaa134cb4643e0c3a60e962e7fcb5179ad9513ac900d85527f0895c7d21a43a18113d53282b266ef3e4a27649b331e7a2c2ec037e290bcb70d60208601526000608086018661019a87357f234acbddef5742294be894318c4879c4f5cf1e1c43da5ab83f6932f55cf5235f7f074996bb3559ea22f067a0d47bb73dd47db22a075364d8fc90c1b103f01eab5884610092565b6101e960208801357e87e1ea856dd84aaeb987ff8aa90535c01e4e71e864151893df378a09dfe7407f10e0027439a33db2703761e8f8aea51148a9f5350d676888b6084470e2bd0f7484610092565b61023960408801357f1552b34c6a6ff44ce8b88d98845b6a738424033c31f15165470dbb5cdbcb32a97f2744fa56cd521da9cb892943d9b17266be4a525a6e9d14fd301e2eb515cf3cde84610092565b61028960608801357f0e5688ac636dc0de7e1eef2d171301ab3d9356863dff26ef9632c937774da6c07f194ed080c9c30f1d382afdbbe0e329955f14d878824fa2ec38420fd999e99fc484610092565b6102d960808801357f29a1d429f18c8604f570fc147fc895d7a55f43fccc70892abf6c2e77def0c0637f05aef5d7cbe68d527a79a342a2fba4886fc438e308cc803fc238781c5802aa4084610092565b50823581527f30644e72e131a029b85045b68181585d97816a916871ca8d3c208c16d87cfd4760208401357f30644e72e131a029b85045b68181585d97816a916871ca8d3c208c16d87cfd4703066020820152833560408201526020840135606082015260408401356080820152606084013560a08201527f10423820fb25183481edbb07daddaee471a97147875e9054f38ce91368795bb660c08201527f0ea00d83b57c48d1c69a59961cd4cbf0f44abcc355e54a83fbceccad6dbf9f2e60e08201527f01383df9d174c9ca0f8ac59d561d5f7f484f859d7741754838999e9597b4c64d6101008201527f2d3f6ee0cedcf720f29c36d4f3c2e106fd5ba83f6f4485a5229ecd621e5f0a4b6101208201527f2e7935d88b30b5f38db080755e6e7ce75e129be80ae77f4a4cf3d194c2f335f56101408201527f16edac5cfaa61781bb884801c930cb3489cc41d54410a42a6aefdd74896db23a610160820152600087015161018082015260206000018701516101a08201527f198e9393920d483a7260bfb731fb5d25f1aa493335a9e71297e485b7aef312c26101c08201527f1800deef121f1e76426a00665e5c4479674322d4f75edadd46debd5cd992f6ed6101e08201527f090689d0585ff075ec9e99ad690c3395bc4b313370b38ef355acdadcd122975b6102008201527f12c85ea5db8c6deb4aab71808dcb408fe3d1e7690c43d37b4ce6cc0166fa7daa610220820152843561024082015260208501356102608201527f198e9393920d483a7260bfb731fb5d25f1aa493335a9e71297e485b7aef312c26102808201527f1800deef121f1e76426a00665e5c4479674322d4f75edadd46debd5cd992f6ed6102a08201527f090689d0585ff075ec9e99ad690c3395bc4b313370b38ef355acdadcd122975b6102c08201527f12c85ea5db8c6deb4aab71808dcb408fe3d1e7690c43d37b4ce6cc0166fa7daa6102e08201526020816103008360086107d05a03fa9051169695505050505050565b60405161038081016040526105d1600084013561005e565b6105de602084013561005e565b6105eb604084013561005e565b6105f8606084013561005e565b610605608084013561005e565b610612818486888a6100fd565b90508060005260206000f35b806040810183101561062f57600080fd5b92915050565b6000806000806101a080868803121561064d57600080fd5b610657878761061e565b945060c086018781111561066a57600080fd5b60408701945061067a888261061e565b93505086818701111561068c57600080fd5b5092959194509261010001915056fea26469706673582212206543540e2195a73b6cc880713475e4a27f65fb7e4d052ba5be7ccf42260ed13d64736f6c63430008130033",
  "linkReferences": {},
  "deployedLinkReferences": {}
}